{
  "_format": "hh-sol-artifact-1",
  "contractName": "GNTToken",
  "sourceName": "contracts/GNTToken.sol",
  "abi": [
    {
      "anonymous": false,
      "inputs": [
        {
          "indexed": false,
          "internalType": "address",
          "name": "previousAdmin",
          "type": "address"
        },
        {
          "indexed": false,
          "internalType": "address",
          "name": "newAdmin",
          "type": "address"
        }
      ],
      "name": "AdminChanged",
      "type": "event"
    },
    {
      "anonymous": false,
      "inputs": [
        {
          "indexed": true,
          "internalType": "address",
          "name": "owner",
          "type": "address"
        },
        {
          "indexed": true,
          "internalType": "address",
          "name": "spender",
          "type": "address"
        },
        {
          "indexed": false,
          "internalType": "uint256",
          "name": "value",
          "type": "uint256"
        }
      ],
      "name": "Approval",
      "type": "event"
    },
    {
      "anonymous": false,
      "inputs": [
        {
          "indexed": true,
          "internalType": "address",
          "name": "beacon",
          "type": "address"
        }
      ],
      "name": "BeaconUpgraded",
      "type": "event"
    },
    {
      "anonymous": false,
      "inputs": [
        {
          "indexed": false,
          "internalType": "address",
          "name": "account",
          "type": "address"
        },
        {
          "indexed": false,
          "internalType": "uint256",
          "name": "amount",
          "type": "uint256"
        }
      ],
      "name": "Burn",
      "type": "event"
    },
    {
      "anonymous": false,
      "inputs": [
        {
          "indexed": false,
          "internalType": "address",
          "name": "account",
          "type": "address"
        },
        {
          "indexed": false,
          "internalType": "uint256",
          "name": "amount",
          "type": "uint256"
        }
      ],
      "name": "Distribute",
      "type": "event"
    },
    {
      "anonymous": false,
      "inputs": [
        {
          "indexed": false,
          "internalType": "address[]",
          "name": "accounts",
          "type": "address[]"
        },
        {
          "indexed": false,
          "internalType": "uint256[]",
          "name": "amounts",
          "type": "uint256[]"
        }
      ],
      "name": "DistributeBatch",
      "type": "event"
    },
    {
      "anonymous": false,
      "inputs": [
        {
          "indexed": false,
          "internalType": "uint8",
          "name": "version",
          "type": "uint8"
        }
      ],
      "name": "Initialized",
      "type": "event"
    },
    {
      "anonymous": false,
      "inputs": [
        {
          "indexed": true,
          "internalType": "address",
          "name": "previousOwner",
          "type": "address"
        },
        {
          "indexed": true,
          "internalType": "address",
          "name": "newOwner",
          "type": "address"
        }
      ],
      "name": "OwnershipTransferred",
      "type": "event"
    },
    {
      "anonymous": false,
      "inputs": [
        {
          "indexed": true,
          "internalType": "bytes32",
          "name": "role",
          "type": "bytes32"
        },
        {
          "indexed": true,
          "internalType": "bytes32",
          "name": "previousAdminRole",
          "type": "bytes32"
        },
        {
          "indexed": true,
          "internalType": "bytes32",
          "name": "newAdminRole",
          "type": "bytes32"
        }
      ],
      "name": "RoleAdminChanged",
      "type": "event"
    },
    {
      "anonymous": false,
      "inputs": [
        {
          "indexed": true,
          "internalType": "bytes32",
          "name": "role",
          "type": "bytes32"
        },
        {
          "indexed": true,
          "internalType": "address",
          "name": "account",
          "type": "address"
        },
        {
          "indexed": true,
          "internalType": "address",
          "name": "sender",
          "type": "address"
        }
      ],
      "name": "RoleGranted",
      "type": "event"
    },
    {
      "anonymous": false,
      "inputs": [
        {
          "indexed": true,
          "internalType": "bytes32",
          "name": "role",
          "type": "bytes32"
        },
        {
          "indexed": true,
          "internalType": "address",
          "name": "account",
          "type": "address"
        },
        {
          "indexed": true,
          "internalType": "address",
          "name": "sender",
          "type": "address"
        }
      ],
      "name": "RoleRevoked",
      "type": "event"
    },
    {
      "anonymous": false,
      "inputs": [
        {
          "indexed": false,
          "internalType": "address",
          "name": "oldTaxReceiver",
          "type": "address"
        },
        {
          "indexed": false,
          "internalType": "address",
          "name": "newTaxReceiver",
          "type": "address"
        }
      ],
      "name": "SetTaxReceiver",
      "type": "event"
    },
    {
      "anonymous": false,
      "inputs": [
        {
          "indexed": true,
          "internalType": "address",
          "name": "from",
          "type": "address"
        },
        {
          "indexed": true,
          "internalType": "address",
          "name": "to",
          "type": "address"
        },
        {
          "indexed": false,
          "internalType": "uint256",
          "name": "value",
          "type": "uint256"
        }
      ],
      "name": "Transfer",
      "type": "event"
    },
    {
      "anonymous": false,
      "inputs": [
        {
          "indexed": false,
          "internalType": "uint256",
          "name": "taxPercentage",
          "type": "uint256"
        }
      ],
      "name": "UpdateTax",
      "type": "event"
    },
    {
      "anonymous": false,
      "inputs": [
        {
          "indexed": false,
          "internalType": "address",
          "name": "account",
          "type": "address"
        },
        {
          "indexed": false,
          "internalType": "bool",
          "name": "enabled",
          "type": "bool"
        }
      ],
      "name": "UpdateTaxFreeAccount",
      "type": "event"
    },
    {
      "anonymous": false,
      "inputs": [
        {
          "indexed": false,
          "internalType": "bool",
          "name": "enabled",
          "type": "bool"
        }
      ],
      "name": "UpdateTransferability",
      "type": "event"
    },
    {
      "anonymous": false,
      "inputs": [
        {
          "indexed": false,
          "internalType": "address",
          "name": "account",
          "type": "address"
        },
        {
          "indexed": false,
          "internalType": "bool",
          "name": "enabled",
          "type": "bool"
        }
      ],
      "name": "UpdateWhitelist",
      "type": "event"
    },
    {
      "anonymous": false,
      "inputs": [
        {
          "indexed": true,
          "internalType": "address",
          "name": "implementation",
          "type": "address"
        }
      ],
      "name": "Upgraded",
      "type": "event"
    },
    {
      "inputs": [],
      "name": "BURNER_ROLE",
      "outputs": [
        {
          "internalType": "bytes32",
          "name": "",
          "type": "bytes32"
        }
      ],
      "stateMutability": "view",
      "type": "function"
    },
    {
      "inputs": [],
      "name": "BURN_ADDRESS",
      "outputs": [
        {
          "internalType": "address",
          "name": "",
          "type": "address"
        }
      ],
      "stateMutability": "view",
      "type": "function"
    },
    {
      "inputs": [],
      "name": "DEFAULT_ADMIN_ROLE",
      "outputs": [
        {
          "internalType": "bytes32",
          "name": "",
          "type": "bytes32"
        }
      ],
      "stateMutability": "view",
      "type": "function"
    },
    {
      "inputs": [],
      "name": "MAX_DISTRIBUTIONS_PER_BATCH",
      "outputs": [
        {
          "internalType": "uint256",
          "name": "",
          "type": "uint256"
        }
      ],
      "stateMutability": "view",
      "type": "function"
    },
    {
      "inputs": [],
      "name": "MAX_SUPPLY_LIMIT",
      "outputs": [
        {
          "internalType": "uint256",
          "name": "",
          "type": "uint256"
        }
      ],
      "stateMutability": "view",
      "type": "function"
    },
    {
      "inputs": [],
      "name": "MINTER_ROLE",
      "outputs": [
        {
          "internalType": "bytes32",
          "name": "",
          "type": "bytes32"
        }
      ],
      "stateMutability": "view",
      "type": "function"
    },
    {
      "inputs": [],
      "name": "MODERATOR_ROLE",
      "outputs": [
        {
          "internalType": "bytes32",
          "name": "",
          "type": "bytes32"
        }
      ],
      "stateMutability": "view",
      "type": "function"
    },
    {
      "inputs": [],
      "name": "TAX_PERCENTAGE_BASE",
      "outputs": [
        {
          "internalType": "uint256",
          "name": "",
          "type": "uint256"
        }
      ],
      "stateMutability": "view",
      "type": "function"
    },
    {
      "inputs": [
        {
          "internalType": "address",
          "name": "owner",
          "type": "address"
        },
        {
          "internalType": "address",
          "name": "spender",
          "type": "address"
        }
      ],
      "name": "allowance",
      "outputs": [
        {
          "internalType": "uint256",
          "name": "",
          "type": "uint256"
        }
      ],
      "stateMutability": "view",
      "type": "function"
    },
    {
      "inputs": [
        {
          "internalType": "address",
          "name": "spender",
          "type": "address"
        },
        {
          "internalType": "uint256",
          "name": "amount",
          "type": "uint256"
        }
      ],
      "name": "approve",
      "outputs": [
        {
          "internalType": "bool",
          "name": "",
          "type": "bool"
        }
      ],
      "stateMutability": "nonpayable",
      "type": "function"
    },
    {
      "inputs": [
        {
          "internalType": "address",
          "name": "account",
          "type": "address"
        }
      ],
      "name": "balanceOf",
      "outputs": [
        {
          "internalType": "uint256",
          "name": "",
          "type": "uint256"
        }
      ],
      "stateMutability": "view",
      "type": "function"
    },
    {
      "inputs": [
        {
          "internalType": "uint256",
          "name": "amount_",
          "type": "uint256"
        }
      ],
      "name": "burn",
      "outputs": [],
      "stateMutability": "nonpayable",
      "type": "function"
    },
    {
      "inputs": [
        {
          "internalType": "address",
          "name": "account_",
          "type": "address"
        },
        {
          "internalType": "uint256",
          "name": "amount_",
          "type": "uint256"
        }
      ],
      "name": "burn",
      "outputs": [],
      "stateMutability": "nonpayable",
      "type": "function"
    },
    {
      "inputs": [],
      "name": "decimals",
      "outputs": [
        {
          "internalType": "uint8",
          "name": "",
          "type": "uint8"
        }
      ],
      "stateMutability": "view",
      "type": "function"
    },
    {
      "inputs": [
        {
          "internalType": "address",
          "name": "spender",
          "type": "address"
        },
        {
          "internalType": "uint256",
          "name": "subtractedValue",
          "type": "uint256"
        }
      ],
      "name": "decreaseAllowance",
      "outputs": [
        {
          "internalType": "bool",
          "name": "",
          "type": "bool"
        }
      ],
      "stateMutability": "nonpayable",
      "type": "function"
    },
    {
      "inputs": [
        {
          "internalType": "address",
          "name": "account_",
          "type": "address"
        },
        {
          "internalType": "uint256",
          "name": "amount_",
          "type": "uint256"
        }
      ],
      "name": "distribute",
      "outputs": [],
      "stateMutability": "nonpayable",
      "type": "function"
    },
    {
      "inputs": [
        {
          "internalType": "address[]",
          "name": "accounts_",
          "type": "address[]"
        },
        {
          "internalType": "uint256[]",
          "name": "amounts_",
          "type": "uint256[]"
        }
      ],
      "name": "distributeBatch",
      "outputs": [],
      "stateMutability": "nonpayable",
      "type": "function"
    },
    {
      "inputs": [
        {
          "internalType": "bytes32",
          "name": "role",
          "type": "bytes32"
        }
      ],
      "name": "getRoleAdmin",
      "outputs": [
        {
          "internalType": "bytes32",
          "name": "",
          "type": "bytes32"
        }
      ],
      "stateMutability": "view",
      "type": "function"
    },
    {
      "inputs": [
        {
          "internalType": "bytes32",
          "name": "role",
          "type": "bytes32"
        },
        {
          "internalType": "address",
          "name": "account",
          "type": "address"
        }
      ],
      "name": "grantRole",
      "outputs": [],
      "stateMutability": "nonpayable",
      "type": "function"
    },
    {
      "inputs": [
        {
          "internalType": "bytes32",
          "name": "role",
          "type": "bytes32"
        },
        {
          "internalType": "address",
          "name": "account",
          "type": "address"
        }
      ],
      "name": "hasRole",
      "outputs": [
        {
          "internalType": "bool",
          "name": "",
          "type": "bool"
        }
      ],
      "stateMutability": "view",
      "type": "function"
    },
    {
      "inputs": [
        {
          "internalType": "address",
          "name": "spender",
          "type": "address"
        },
        {
          "internalType": "uint256",
          "name": "addedValue",
          "type": "uint256"
        }
      ],
      "name": "increaseAllowance",
      "outputs": [
        {
          "internalType": "bool",
          "name": "",
          "type": "bool"
        }
      ],
      "stateMutability": "nonpayable",
      "type": "function"
    },
    {
      "inputs": [
        {
          "internalType": "bool",
          "name": "transferEnabled_",
          "type": "bool"
        },
        {
          "internalType": "address",
          "name": "taxReceiver_",
          "type": "address"
        }
      ],
      "name": "initialize",
      "outputs": [],
      "stateMutability": "nonpayable",
      "type": "function"
    },
    {
      "inputs": [],
      "name": "name",
      "outputs": [
        {
          "internalType": "string",
          "name": "",
          "type": "string"
        }
      ],
      "stateMutability": "view",
      "type": "function"
    },
    {
      "inputs": [],
      "name": "owner",
      "outputs": [
        {
          "internalType": "address",
          "name": "",
          "type": "address"
        }
      ],
      "stateMutability": "view",
      "type": "function"
    },
    {
      "inputs": [],
      "name": "proxiableUUID",
      "outputs": [
        {
          "internalType": "bytes32",
          "name": "",
          "type": "bytes32"
        }
      ],
      "stateMutability": "view",
      "type": "function"
    },
    {
      "inputs": [],
      "name": "renounceOwnership",
      "outputs": [],
      "stateMutability": "nonpayable",
      "type": "function"
    },
    {
      "inputs": [
        {
          "internalType": "bytes32",
          "name": "role",
          "type": "bytes32"
        },
        {
          "internalType": "address",
          "name": "account",
          "type": "address"
        }
      ],
      "name": "renounceRole",
      "outputs": [],
      "stateMutability": "nonpayable",
      "type": "function"
    },
    {
      "inputs": [
        {
          "internalType": "bytes32",
          "name": "role",
          "type": "bytes32"
        },
        {
          "internalType": "address",
          "name": "account",
          "type": "address"
        }
      ],
      "name": "revokeRole",
      "outputs": [],
      "stateMutability": "nonpayable",
      "type": "function"
    },
    {
      "inputs": [
        {
          "internalType": "address",
          "name": "taxReceiver_",
          "type": "address"
        }
      ],
      "name": "setTaxReceiver",
      "outputs": [],
      "stateMutability": "nonpayable",
      "type": "function"
    },
    {
      "inputs": [
        {
          "internalType": "bytes4",
          "name": "interfaceId",
          "type": "bytes4"
        }
      ],
      "name": "supportsInterface",
      "outputs": [
        {
          "internalType": "bool",
          "name": "",
          "type": "bool"
        }
      ],
      "stateMutability": "view",
      "type": "function"
    },
    {
      "inputs": [],
      "name": "symbol",
      "outputs": [
        {
          "internalType": "string",
          "name": "",
          "type": "string"
        }
      ],
      "stateMutability": "view",
      "type": "function"
    },
    {
      "inputs": [
        {
          "internalType": "address",
          "name": "",
          "type": "address"
        }
      ],
      "name": "taxExempted",
      "outputs": [
        {
          "internalType": "bool",
          "name": "",
          "type": "bool"
        }
      ],
      "stateMutability": "view",
      "type": "function"
    },
    {
      "inputs": [],
      "name": "taxPercentage",
      "outputs": [
        {
          "internalType": "uint256",
          "name": "",
          "type": "uint256"
        }
      ],
      "stateMutability": "view",
      "type": "function"
    },
    {
      "inputs": [],
      "name": "taxReceiver",
      "outputs": [
        {
          "internalType": "address",
          "name": "",
          "type": "address"
        }
      ],
      "stateMutability": "view",
      "type": "function"
    },
    {
      "inputs": [],
      "name": "totalSupply",
      "outputs": [
        {
          "internalType": "uint256",
          "name": "",
          "type": "uint256"
        }
      ],
      "stateMutability": "view",
      "type": "function"
    },
    {
      "inputs": [
        {
          "internalType": "address",
          "name": "to",
          "type": "address"
        },
        {
          "internalType": "uint256",
          "name": "amount",
          "type": "uint256"
        }
      ],
      "name": "transfer",
      "outputs": [
        {
          "internalType": "bool",
          "name": "",
          "type": "bool"
        }
      ],
      "stateMutability": "nonpayable",
      "type": "function"
    },
    {
      "inputs": [],
      "name": "transferEnabled",
      "outputs": [
        {
          "internalType": "bool",
          "name": "",
          "type": "bool"
        }
      ],
      "stateMutability": "view",
      "type": "function"
    },
    {
      "inputs": [
        {
          "internalType": "address",
          "name": "from",
          "type": "address"
        },
        {
          "internalType": "address",
          "name": "to",
          "type": "address"
        },
        {
          "internalType": "uint256",
          "name": "amount",
          "type": "uint256"
        }
      ],
      "name": "transferFrom",
      "outputs": [
        {
          "internalType": "bool",
          "name": "",
          "type": "bool"
        }
      ],
      "stateMutability": "nonpayable",
      "type": "function"
    },
    {
      "inputs": [
        {
          "internalType": "address",
          "name": "newOwner",
          "type": "address"
        }
      ],
      "name": "transferOwnership",
      "outputs": [],
      "stateMutability": "nonpayable",
      "type": "function"
    },
    {
      "inputs": [
        {
          "internalType": "uint256",
          "name": "taxPercentage_",
          "type": "uint256"
        }
      ],
      "name": "updateTax",
      "outputs": [],
      "stateMutability": "nonpayable",
      "type": "function"
    },
    {
      "inputs": [
        {
          "internalType": "address",
          "name": "account_",
          "type": "address"
        },
        {
          "internalType": "bool",
          "name": "enabled_",
          "type": "bool"
        }
      ],
      "name": "updateTaxFreeAccount",
      "outputs": [],
      "stateMutability": "nonpayable",
      "type": "function"
    },
    {
      "inputs": [
        {
          "internalType": "bool",
          "name": "transferEnabled_",
          "type": "bool"
        }
      ],
      "name": "updateTransferability",
      "outputs": [],
      "stateMutability": "nonpayable",
      "type": "function"
    },
    {
      "inputs": [
        {
          "internalType": "address",
          "name": "account_",
          "type": "address"
        },
        {
          "internalType": "bool",
          "name": "enabled_",
          "type": "bool"
        }
      ],
      "name": "updateWhitelist",
      "outputs": [],
      "stateMutability": "nonpayable",
      "type": "function"
    },
    {
      "inputs": [
        {
          "internalType": "address",
          "name": "newImplementation",
          "type": "address"
        }
      ],
      "name": "upgradeTo",
      "outputs": [],
      "stateMutability": "nonpayable",
      "type": "function"
    },
    {
      "inputs": [
        {
          "internalType": "address",
          "name": "newImplementation",
          "type": "address"
        },
        {
          "internalType": "bytes",
          "name": "data",
          "type": "bytes"
        }
      ],
      "name": "upgradeToAndCall",
      "outputs": [],
      "stateMutability": "payable",
      "type": "function"
    },
    {
      "inputs": [
        {
          "internalType": "address",
          "name": "",
          "type": "address"
        }
      ],
      "name": "whitelisted",
      "outputs": [
        {
          "internalType": "bool",
          "name": "",
          "type": "bool"
        }
      ],
      "stateMutability": "view",
      "type": "function"
    }
  ],
  "bytecode": "0x60a08060405234610031573060805261350c908161003782396080518181816115d6015281816117030152611cdd0152f35b600080fdfe608080604052600436101561001357600080fd5b60003560e01c90816301ffc9a71461253b5750806306fdde03146124a7578063095ea7b3146124815780630d392cd9146122eb57806318160ddd146122cd57806323b872dd14612105578063248a9ca3146120d6578063282c51f3146120ad5780632f2ff15d1461200a578063313ce56714611fee57806336568abe14611f5c5780633659cfe614611cb95780633950935114611c6857806342966c6814611c0e57806343088a9714611a4d57806345a892ea14611a315780634ccd4f3f146119f15780634cd412d5146119cd5780634f1ef2861461168757806352d1902d146115c3578063617d11261461159d57806361d3458f146114d657806370a082311461149c578063715018a61461143a578063797669c9146113ff57806385ee7ba614610e1b5780638da5cb5b14610df257806391d1485414610da557806395d89b4114610cc75780639dc29fac14610a73578063a217fddf14610a57578063a457c2d7146109a5578063a8182a7114610988578063a9059cbb14610862578063ae7b6d1614610843578063cca0feb61461079d578063cd8de42c14610774578063cf4c58e2146104d9578063d5391393146104b0578063d547741f14610471578063d936547e14610431578063dd62ed3e146103e0578063e6ef73d6146103b6578063f2fde38b14610327578063fb9321081461023b5763fccc28131461021957600080fd5b3461023657600036600319011261023657602060405161dead8152f35b600080fd5b34610236576040366003190112610236576102546125dd565b60243561025f6126ce565b6001600160a01b0382166000908152610162602052604090205460ff16156102d157816102ad827fc1d32ad5cca423e7dda2123dbf8c482f8e77d00b631c06e903a47f2cec1334df9461323f565b604080516001600160a01b039092168252602082019290925290819081015b0390a1005b60405162461bcd60e51b815260206004820152602860248201527f646973747269627574653a207265636569766572206d757374206265207768696044820152671d195b1a5cdd195960c21b6064820152608490fd5b34610236576020366003190112610236576103406125dd565b6103486129fb565b6001600160a01b038116156103625761036090612a53565b005b60405162461bcd60e51b815260206004820152602660248201527f4f776e61626c653a206e6577206f776e657220697320746865207a65726f206160448201526564647265737360d01b6064820152608490fd5b346102365760003660031901126102365761015f546040516001600160a01b039091168152602090f35b34610236576040366003190112610236576103f96125dd565b6104016125f3565b9060018060a01b038091166000526066602052604060002091166000526020526020604060002054604051908152f35b34610236576020366003190112610236576001600160a01b036104526125dd565b16600052610162602052602060ff604060002054166040519015158152f35b34610236576040366003190112610236576103606004356104906125f3565b908060005260c96020526104ab600160406000200154612887565b612983565b346102365760003660031901126102365760206040516000805160206134578339815191528152f35b346102365760403660031901126102365767ffffffffffffffff6004358181116102365761050b90369060040161269d565b9060249283359081116102365761052690369060040161269d565b90936105306126ce565b60328411610712578184036106be5760005b8481106105e757505060405192806040850160408652526060840192906000905b8082106105bd5750505082820360208401528082526001600160fb1b038111610236577f313dc8fe19cc3c01d96a1443e21814a31d777c97f8a36fc04a170920bd5e63c993602092849260051b80928583013701030190a1005b90919384359060018060a01b03821680920361023657600191815260208091019501920190610563565b6001600160a01b036106026105fd8388886132df565b6132ef565b166000526020610162815260ff6040600020541615610665575061063f61062d6105fd8388886132df565b61063883868a6132df565b359061323f565b600019811461065057600101610542565b50634e487b7160e01b60009081526011600452fd5b608490602d846040519262461bcd60e51b845260048401528201527f6469737472696275746542617463683a207265636569766572206d757374206260448201526c19481dda1a5d195b1a5cdd1959609a1b6064820152fd5b60849060276040519162461bcd60e51b8352602060048401528201527f6469737472696275746542617463683a206172726179206c656e67746873206d6044820152660d2e6dac2e8c6d60cb1b6064820152fd5b60849060356040519162461bcd60e51b8352602060048401528201527f6469737472696275746542617463683a206578636565646564204d41585f44496044820152740a6a8a49284aaa8929e9ca6bea08aa4be8482a8869605b1b6064820152fd5b34610236576020366003190112610236576103606107906125dd565b6107986129fb565b613303565b34610236576020366003190112610236576004356107b96129fb565b61271081116107f4576020817f9e7f008c9cec93e25d0879929471d5726da94e183c2df243d61f61c8471952949261016055604051908152a1005b60405162461bcd60e51b815260206004820152602160248201527f7570646174655461783a20696e76616c6964207461782070657263656e7461676044820152606560f81b6064820152608490fd5b3461023657600036600319011261023657602061016054604051908152f35b346102365760403660031901126102365761087b6125dd565b6024356000805160206134578339815191526000526108c28160209360c98552604060002033600052855260ff604060002054168015610958575b1561090a575b3361317a565b6108cb33613404565b6108da575b5060405160018152f35b6127106108ed6109049261016054612db8565b61015f54919004906001600160a01b03163361317a565b816108d0565b61091960ff6101615416612f50565b3360005261016280865261093460ff60406000205416612fa7565b60018060a01b038216600052855261095360ff60406000205416612fff565b6108bc565b506000805160206134b783398151915260005260c98552604060002033600052855260ff604060002054166108b6565b346102365760003660031901126102365760206040516127108152f35b34610236576040366003190112610236576109be6125dd565b60243590336000526066602052604060002060018060a01b03821660005260205260406000205491808310610a04576109f992039033612c7e565b602060405160018152f35b60405162461bcd60e51b815260206004820152602560248201527f45524332303a2064656372656173656420616c6c6f77616e63652062656c6f77604482015264207a65726f60d81b6064820152608490fd5b3461023657600036600319011261023657602060405160008152f35b3461023657604036600319011261023657610a8c6125dd565b3360009081527f32666ab6d4d28db60031281685d22dd74c2ee48b3b9c9b334b1d6023a42775c46020908152604090912054909160248035926000805160206134b7833981519152919060ff1615610b0b577fcc16f5dbb4873280815c1ee09dbd06736cffcc184412cf7a71a0fdb75d397ca584846102ad828261305a565b849250610b1733612df2565b610b1f612b65565b91825115610cb35784830193603085538351600190811015610c9e57607860218601536041905b808211610c30575050610bee57610bea610b9a610bd26048888888610bc389604051978576020b1b1b2b9b9a1b7b73a3937b61d1030b1b1b7bab73a1604d1b8a97880152825192839160378901910161258e565b8401917001034b99036b4b9b9b4b733903937b6329607d1b60378401525180938684019061258e565b0103602881018452018261265f565b60405162461bcd60e51b8152918291600483016125b1565b0390fd5b606490856040519162461bcd60e51b83528160048401528201527f537472696e67733a20686578206c656e67746820696e73756666696369656e746044820152fd5b9091600f81166010811015610c89576f181899199a1a9b1b9c1cb0b131b232b360811b901a610c5f8488612dcb565b5360041c918015610c74576000190190610b46565b83634e487b7160e01b60005260116004526000fd5b84634e487b7160e01b60005260326004526000fd5b82634e487b7160e01b60005260326004526000fd5b634e487b7160e01b60009081526032600452fd5b34610236576000366003190112610236576040516000606954610ce981612c21565b80845290600190818116908115610d7e5750600114610d23575b610d1f84610d138186038261265f565b604051918291826125b1565b0390f35b6069600090815292507f7fb4302e8e91f9110a6554c2c0a24601252c2a42c2220ca988efcfe3999143085b828410610d66575050508101602001610d1382610d03565b80546020858701810191909152909301928101610d4e565b60ff191660208087019190915292151560051b85019092019250610d139150839050610d03565b3461023657604036600319011261023657610dbe6125f3565b60043560005260c960205260406000209060018060a01b0316600052602052602060ff604060002054166040519015158152f35b34610236576000366003190112610236576033546040516001600160a01b039091168152602090f35b3461023657604036600319011261023657610e34612618565b610e3c6125f3565b6000549060ff8260081c1615918280936113f2575b80156113db575b1561137f5760ff1981166001176000558261136d575b5060405192610e7c84612643565b600884526723a72a2a37b5b2b760c11b602085015260405193610e9e85612643565b600385526211d39560ea1b6020860152610ec860ff60005460081c16610ec381612ef0565b612ef0565b80519067ffffffffffffffff8211611260578190610ee7606854612c21565b601f81116112f9575b50602090601f831160011461128157600092611276575b50508160011b916000199060031b1c1916176068555b835167ffffffffffffffff811161126057610f39606954612c21565b601f81116111fb575b506020601f8211600114611172578190610fbf9596600092611167575b50508160011b916000199060031b1c1916176069555b610f8a60ff60005460081c16610ec381612ef0565b610f9333612a53565b610fa860ff60005460081c16610ec381612ef0565b6101619060ff801983541691151516179055613303565b3360009081527f81fe90a866a48a634a12852c1be675b683a22307409932a7443b8029347be756602052604090205460c99060ff1615611126575b600080516020613457833981519152806000528160205260406000203360005260205260ff60406000205416156110e3575b506000805160206134b783398151915290816000528060205260406000203360005260205260ff60406000205416156110a0575b505061106857005b61ff0019600054166000557f7f26b83ff96e1f2b6a682f133852f6798a09c465da95921460cefb3847402498602060405160018152a1005b816000526020526040600020336000526020526040600020600160ff19825416179055339033906000805160206134378339815191526000604051a48180611060565b80600052816020526040600020336000526020526040600020600160ff19825416179055339033906000805160206134378339815191526000604051a48261102c565b60008052806020526040600020336000526020526040600020600160ff198254161790553333600060008051602061343783398151915281604051a4610ffa565b015190508680610f5f565b601f1982169560696000527f7fb4302e8e91f9110a6554c2c0a24601252c2a42c2220ca988efcfe3999143089660005b8181106111e3575091610fbf9697918460019594106111ca575b505050811b01606955610f75565b015160001960f88460031b161c191690558680806111bc565b838301518955600190980197602093840193016111a2565b60696000527f7fb4302e8e91f9110a6554c2c0a24601252c2a42c2220ca988efcfe399914308601f830160051c81019160208410611256575b601f0160051c01905b81811061124a5750610f42565b6000815560010161123d565b9091508190611234565b634e487b7160e01b600052604160045260246000fd5b015190508680610f07565b92506068600052600080516020613497833981519152906000935b601f19841685106112de576001945083601f198116106112c5575b505050811b01606855610f1d565b015160001960f88460031b161c191690558680806112b7565b8181015183556020948501946001909301929091019061129c565b9091506068600052601f830160051c6000805160206134978339815191520160208410611358575b908392915b601f820160051c6000805160206134978339815191520181106113495750610ef0565b60008155849350600101611326565b50600080516020613497833981519152611321565b61ffff19166101011760005583610e6e565b60405162461bcd60e51b815260206004820152602e60248201527f496e697469616c697a61626c653a20636f6e747261637420697320616c72656160448201526d191e481a5b9a5d1a585b1a5e995960921b6064820152608490fd5b50303b158015610e585750600160ff821614610e58565b50600160ff821610610e51565b346102365760003660031901126102365760206040517f58c8e11deab7910e89bf18a1168c6e6ef28748f00fd3094549459f01cec5e0aa8152f35b34610236576000366003190112610236576114536129fb565b603380546001600160a01b0319811690915560405160009182906001600160a01b03167f8be0079c531659141344cd1fd0a4f28419497f9722a3daafe3b4186f6b6457e08284a3f35b34610236576020366003190112610236576001600160a01b036114bd6125dd565b1660005260656020526020604060002054604051908152f35b34610236576020366003190112610236576114ef612618565b6114f76129fb565b61016190815490151560ff821615158114611546577f6bac9a12247929d003198785fd8281eecfab25f64a2342832fc7e0fe2a5b99bd9260209260ff83169060ff1916179055604051908152a1005b60405162461bcd60e51b815260206004820152602960248201527f7570646174655472616e736665726162696c6974793a2073746174757320616c6044820152681c9958591e481cd95d60ba1b6064820152608490fd5b346102365760003660031901126102365760206040516a084595161401484a0000008152f35b34610236576000366003190112610236577f00000000000000000000000000000000000000000000000000000000000000006001600160a01b0316300361161c5760206040516000805160206134778339815191528152f35b60405162461bcd60e51b815260206004820152603860248201527f555550535570677261646561626c653a206d757374206e6f742062652063616c60448201527f6c6564207468726f7567682064656c656761746563616c6c00000000000000006064820152608490fd5b60403660031901126102365761169b6125dd565b602490813567ffffffffffffffff81116102365736602382011215610236578060040135906116c982612681565b6116d6604051918261265f565b82815260209283820192368783830101116102365781600092888793018637830101526001600160a01b037f000000000000000000000000000000000000000000000000000000000000000081169061173130831415612aa3565b61174e600080516020613477833981519152928284541614612b04565b6117566129fb565b7f4910fdfa16fed3260ed0e7147f7cc6da11a60208b5b9406d12a635614ffd91435460ff161561178f5750505050506103609150612b91565b85949516906040516352d1902d60e01b81528681600481865afa6000918161199e575b506118125760405162461bcd60e51b815260048101889052602e818a01527f45524331393637557067726164653a206e657720696d706c656d656e7461746960448201526d6f6e206973206e6f74205555505360901b6064820152608490fd5b969192939496036119495761182686612b91565b604051917fbc7cd75a20ee27fd9adebab32041f755214dbc6bffa90cc0225b39da2e5c2d3b600084a2825115801590611941575b61186057005b853b156118f157505061036093600092839251915af43d156118e9573d9061188782612681565b91611895604051938461265f565b82523d60008484013e5b7f416464726573733a206c6f772d6c6576656c2064656c65676174652063616c6c604051936118cd85612627565b60278552840152660819985a5b195960ca1b6040840152612d80565b60609061189f565b62461bcd60e51b8252600482018590526026908201527f416464726573733a2064656c65676174652063616c6c20746f206e6f6e2d636f6044820152651b9d1c9858dd60d21b6064820152608490fd5b50600161185a565b8460296084926040519262461bcd60e51b845260048401528201527f45524331393637557067726164653a20756e737570706f727465642070726f786044820152681a58589b195555525160ba1b6064820152fd5b9091508781813d83116119c6575b6119b6818361265f565b81010312610236575190896117b2565b503d6119ac565b3461023657600036600319011261023657602060ff61016154166040519015158152f35b34610236576020366003190112610236576001600160a01b03611a126125dd565b16600052610163602052602060ff604060002054166040519015158152f35b3461023657600036600319011261023657602060405160328152f35b3461023657604036600319011261023657611a666125dd565b611a6e612609565b6033546001600160a01b0390811633148015611bd6575b15611b7257821691826000526101638060205260ff6040600020541683151590151514611b11577f607aa7df72c1190873bd60bd40ecd0594734c23a8e48df80c1d944580bb6f09293600052602052611aee8260406000209060ff801983541691151516179055565b604080516001600160a01b039092168252911515602082015290819081016102cc565b60405162461bcd60e51b815260206004820152603360248201527f757064617465546178467265654163636f756e743a207461782d6578656d7074604482015272081cdd185d1d5cc8185b1c9958591e481cd95d606a1b6064820152608490fd5b60405162461bcd60e51b815260206004820152603660248201527f757064617465546178467265654163636f756e743a2063616c6c6572206973206044820152753737ba1037bbb732b91037b91036b7b232b930ba37b960511b6064820152608490fd5b503360009081527f8a0ec6be15b551721e53a2084e16308734ef62101f15c4bf7f1e2e39726aa6fd602052604090205460ff16611a85565b34610236576020366003190112610236577fcc16f5dbb4873280815c1ee09dbd06736cffcc184412cf7a71a0fdb75d397ca56102cc600435611c50813361305a565b60408051338152602081019290925290918291820190565b34610236576040366003190112610236576109f9611c846125dd565b336000526066602052604060002060018060a01b038216600052602052611cb2602435604060002054612c5b565b9033612c7e565b346102365760208060031936011261023657611cd36125dd565b6001600160a01b037f00000000000000000000000000000000000000000000000000000000000000008116611d0a30821415612aa3565b611d27600080516020613477833981519152918383541614612b04565b611d2f6129fb565b604051908482019282841067ffffffffffffffff85111761126057836040526000835260ff7f4910fdfa16fed3260ed0e7147f7cc6da11a60208b5b9406d12a635614ffd91435416600014611d8c57505050506103609150612b91565b8416906040516352d1902d60e01b81528681600481865afa60009181611f2d575b50611e0e5760405162461bcd60e51b815260048101889052602e60248201527f45524331393637557067726164653a206e657720696d706c656d656e7461746960448201526d6f6e206973206e6f74205555505360901b6064820152608490fd5b03611ed657611e1c84612b91565b604051907fbc7cd75a20ee27fd9adebab32041f755214dbc6bffa90cc0225b39da2e5c2d3b600083a2815115801590611ece575b611e5657005b833b15611e7d57506103609392600092839251915af43d156118e9573d9061188782612681565b62461bcd60e51b815260048101859052602660248201527f416464726573733a2064656c65676174652063616c6c20746f206e6f6e2d636f6044820152651b9d1c9858dd60d21b6064820152608490fd5b506000611e50565b60405162461bcd60e51b815260048101869052602960248201527f45524331393637557067726164653a20756e737570706f727465642070726f786044820152681a58589b195555525160ba1b6064820152608490fd5b9091508781813d8311611f55575b611f45818361265f565b8101031261023657519088611dad565b503d611f3b565b3461023657604036600319011261023657611f756125f3565b336001600160a01b03821603611f915761036090600435612983565b60405162461bcd60e51b815260206004820152602f60248201527f416363657373436f6e74726f6c3a2063616e206f6e6c792072656e6f756e636560448201526e103937b632b9903337b91039b2b63360891b6064820152608490fd5b3461023657600036600319011261023657602060405160128152f35b34610236576040366003190112610236576004356120266125f3565b8160005260c9602052612040600160406000200154612887565b8160005260c960205260406000209060018060a01b0316908160005260205260ff604060002054161561206f57005b8160005260c96020526040600020816000526020526040600020600160ff1982541617905533916000805160206134378339815191526000604051a4005b346102365760003660031901126102365760206040516000805160206134b78339815191528152f35b346102365760203660031901126102365760043560005260c96020526020600160406000200154604051908152f35b346102365760603660031901126102365761211e6125dd565b6121266125f3565b3360009081527f162718ea8323f811467739aefa58f10676f639ed8d7cff9eccdcd144e69e65e960209081526040909120549092604435929160ff16801561229d575b1561224c575b60018060a01b03918282166000526066855260406000203360005285528360406000205460001981036121e8575b506121a8918361317a565b6121b181613404565b6121c0575b8360405160018152f35b6127106121d36121e09461016054612db8565b049161015f54169061317a565b8180806121b6565b908110612207576121a891612201868093033386612c7e565b9161219d565b60405162461bcd60e51b815260048101879052601d60248201527f45524332303a20696e73756666696369656e7420616c6c6f77616e63650000006044820152606490fd5b61225b60ff6101615416612f50565b60018060a01b038082166000526101629081865261228060ff60406000205416612fa7565b8316600052845261229860ff60406000205416612fff565b61216f565b506000805160206134b783398151915260005260c98452604060002033600052845260ff60406000205416612169565b34610236576000366003190112610236576020606754604051908152f35b34610236576040366003190112610236576123046125dd565b61230c612609565b6033546001600160a01b0390811633148015612449575b156123e957821691826000526101628060205260ff604060002054168315159015151461238c577f08b2c0469ecd1d7a21d7e1492f0fc75fc7e8e0fa4fdf4275949c90875f5ebdf593600052602052611aee8260406000209060ff801983541691151516179055565b60405162461bcd60e51b815260206004820152602f60248201527f75706461746557686974656c6973743a2077686974656c69737465642073746160448201526e1d1d5cc8185b1c9958591e481cd95d608a1b6064820152608490fd5b60405162461bcd60e51b815260206004820152603260248201527f75706461746557686974656c6973743a2063616c6c6572206973206e6f74206f6044820152713bb732b9103737b91036b7b232b930ba37b960711b6064820152608490fd5b503360009081527f8a0ec6be15b551721e53a2084e16308734ef62101f15c4bf7f1e2e39726aa6fd602052604090205460ff16612323565b34610236576040366003190112610236576109f961249d6125dd565b6024359033612c7e565b346102365760003660031901126102365760405160006068546124c981612c21565b80845290600190818116908115610d7e57506001146124f257610d1f84610d138186038261265f565b6068600090815292506000805160206134978339815191525b828410612523575050508101602001610d1382610d03565b8054602085870181019190915290930192810161250b565b34610236576020366003190112610236576004359063ffffffff60e01b821680920361023657602091637965db0b60e01b811490811561257d575b5015158152f35b6301ffc9a760e01b14905083612576565b60005b8381106125a15750506000910152565b8181015183820152602001612591565b604091602082526125d1815180928160208601526020868601910161258e565b601f01601f1916010190565b600435906001600160a01b038216820361023657565b602435906001600160a01b038216820361023657565b60243590811515820361023657565b60043590811515820361023657565b6060810190811067ffffffffffffffff82111761126057604052565b6040810190811067ffffffffffffffff82111761126057604052565b90601f8019910116810190811067ffffffffffffffff82111761126057604052565b67ffffffffffffffff811161126057601f01601f191660200190565b9181601f840112156102365782359167ffffffffffffffff8311610236576020808501948460051b01011161023657565b3360009081527f162718ea8323f811467739aefa58f10676f639ed8d7cff9eccdcd144e69e65e9602090815260408220549091906000805160206134578339815191529060ff161561271f57505050565b61272833612df2565b612730612b65565b9182511561287357848301936030855383519060019182101561285f5790607860218601536041915b8183116127f1575050506127ae57610bea93610b9a93610bd293610bc3604894604051978576020b1b1b2b9b9a1b7b73a3937b61d1030b1b1b7bab73a1604d1b8a97880152825192839160378901910161258e565b6064846040519062461bcd60e51b825280600483015260248201527f537472696e67733a20686578206c656e67746820696e73756666696369656e746044820152fd5b909192600f8116601081101561284b576f181899199a1a9b1b9c1cb0b131b232b360811b901a6128218588612dcb565b5360041c92801561283757600019019190612759565b634e487b7160e01b82526011600452602482fd5b634e487b7160e01b83526032600452602483fd5b634e487b7160e01b81526032600452602490fd5b634e487b7160e01b84526032600452602484fd5b600081815260209160c9835260408220338352835260ff604083205416156128ae57505050565b6128b733612df2565b6128bf612b65565b9182511561287357848301936030855383519060019182101561285f5790607860218601536041915b81831161293d575050506127ae57610bea93610b9a93610bd293610bc3604894604051978576020b1b1b2b9b9a1b7b73a3937b61d1030b1b1b7bab73a1604d1b8a97880152825192839160378901910161258e565b909192600f8116601081101561284b576f181899199a1a9b1b9c1cb0b131b232b360811b901a61296d8588612dcb565b5360041c928015612837576000190191906128e8565b9060009180835260c9602052604083209160018060a01b03169182845260205260ff6040842054166129b457505050565b80835260c9602052604083208284526020526040832060ff1981541690557ff6391f5c32d9c69d2a47ea670b442974b53935d1edc7fd64eb21e047a839171b3393604051a4565b6033546001600160a01b03163303612a0f57565b606460405162461bcd60e51b815260206004820152602060248201527f4f776e61626c653a2063616c6c6572206973206e6f7420746865206f776e65726044820152fd5b6033549060018060a01b0380911691826bffffffffffffffffffffffff60a01b821617603355167f8be0079c531659141344cd1fd0a4f28419497f9722a3daafe3b4186f6b6457e06000604051a3565b15612aaa57565b60405162461bcd60e51b815260206004820152602c60248201527f46756e6374696f6e206d7573742062652063616c6c6564207468726f7567682060448201526b19195b1959d85d1958d85b1b60a21b6064820152608490fd5b15612b0b57565b60405162461bcd60e51b815260206004820152602c60248201527f46756e6374696f6e206d7573742062652063616c6c6564207468726f7567682060448201526b6163746976652070726f787960a01b6064820152608490fd5b604051906080820182811067ffffffffffffffff82111761126057604052604282526060366020840137565b803b15612bc65760008051602061347783398151915280546001600160a01b0319166001600160a01b03909216919091179055565b60405162461bcd60e51b815260206004820152602d60248201527f455243313936373a206e657720696d706c656d656e746174696f6e206973206e60448201526c1bdd08184818dbdb9d1c9858dd609a1b6064820152608490fd5b90600182811c92168015612c51575b6020831014612c3b57565b634e487b7160e01b600052602260045260246000fd5b91607f1691612c30565b91908201809211612c6857565b634e487b7160e01b600052601160045260246000fd5b6001600160a01b03908116918215612d2f5716918215612cdf5760207f8c5be1e5ebec7d5bd14f71427d1e84f3dd0314c0f7b2291e5b200ac8c7c3b925918360005260668252604060002085600052825280604060002055604051908152a3565b60405162461bcd60e51b815260206004820152602260248201527f45524332303a20617070726f766520746f20746865207a65726f206164647265604482015261737360f01b6064820152608490fd5b60405162461bcd60e51b8152602060048201526024808201527f45524332303a20617070726f76652066726f6d20746865207a65726f206164646044820152637265737360e01b6064820152608490fd5b90919015612d8c575090565b815115612d9c5750805190602001fd5b60405162461bcd60e51b8152908190610bea90600483016125b1565b8060001904821181151516612c68570290565b908151811015612ddc570160200190565b634e487b7160e01b600052603260045260246000fd5b60405190612dff82612627565b602a8252602082016040368237825115612ddc57603090538151600190811015612ddc57607860218401536029905b808211612e82575050612e3e5790565b606460405162461bcd60e51b815260206004820152602060248201527f537472696e67733a20686578206c656e67746820696e73756666696369656e746044820152fd5b9091600f81166010811015612edb576f181899199a1a9b1b9c1cb0b131b232b360811b901a612eb18486612dcb565b5360041c918015612ec6576000190190612e2e565b60246000634e487b7160e01b81526011600452fd5b60246000634e487b7160e01b81526032600452fd5b15612ef757565b60405162461bcd60e51b815260206004820152602b60248201527f496e697469616c697a61626c653a20636f6e7472616374206973206e6f74206960448201526a6e697469616c697a696e6760a81b6064820152608490fd5b15612f5757565b60405162461bcd60e51b815260206004820152602260248201527f7472616e736665723a207472616e736665726162696c6974792064697361626c604482015261195960f21b6064820152608490fd5b15612fae57565b60405162461bcd60e51b8152602060048201526024808201527f7472616e736665723a2073656e646572206d7573742062652077686974656c696044820152631cdd195960e21b6064820152608490fd5b1561300657565b60405162461bcd60e51b815260206004820152602660248201527f7472616e736665723a207265636569766572206d7573742062652077686974656044820152651b1a5cdd195960d21b6064820152608490fd5b6001600160a01b0316801561312757600091818352606560205260408320548181106130d357817fddf252ad1be2c89b69c2b068fc378daa952ba7f163c4a11628f55a4df523b3ef9260209285875260658452036040862055604061dead95868152206130c8828254612c5b565b9055604051908152a3565b60405162461bcd60e51b815260206004820152602660248201527f45524332303a207472616e7366657220616d6f756e7420657863656564732062604482015265616c616e636560d01b6064820152608490fd5b60405162461bcd60e51b815260206004820152602560248201527f45524332303a207472616e736665722066726f6d20746865207a65726f206164604482015264647265737360d81b6064820152608490fd5b6001600160a01b0390811691821561312757169182156131ee57600082815260656020526040812054918083106130d357604082827fddf252ad1be2c89b69c2b068fc378daa952ba7f163c4a11628f55a4df523b3ef958760209652606586520382822055868152206130c8828254612c5b565b60405162461bcd60e51b815260206004820152602360248201527f45524332303a207472616e7366657220746f20746865207a65726f206164647260448201526265737360e81b6064820152608490fd5b6001600160a01b031690811561329a577fddf252ad1be2c89b69c2b068fc378daa952ba7f163c4a11628f55a4df523b3ef602082613281600094606754612c5b565b60675584845260658252604084206130c8828254612c5b565b60405162461bcd60e51b815260206004820152601f60248201527f45524332303a206d696e7420746f20746865207a65726f2061646472657373006044820152606490fd5b9190811015612ddc5760051b0190565b356001600160a01b03811681036102365790565b6001600160a01b0390811680156133bf5761015f9182549081168083146133635760407f24682dd59a449db60ac2aa166bd40e030cf7e4da0488cc662269854354c847cd918151908152846020820152a16001600160a01b031916179055565b60405162461bcd60e51b815260206004820152602e60248201527f73657454617852656365697665723a206164647265737320697320616c72656160448201526d323c903a30bc2932b1b2b4bb32b960911b6064820152608490fd5b60405162461bcd60e51b815260206004820152601f60248201527f73657454617852656365697665723a20696e76616c69642061646472657373006044820152606490fd5b6101605415159081613414575090565b6001600160a01b03166000908152610163602052604090205460ff161591905056fe2f8788117e7eff1d82e926ec794901d17c78024a50270940304540a733656f0df0887ba65ee2024ea881d91b74c2450ef19e1557f03bed3ea9f16b037cbe2dc9360894a13ba1a3210667c828492db98dca3e2076cc3735a920a3ca505d382bbca2153420d844928b4421650203c77babc8b33d7f2e7b450e2966db0c220977539667e80708b6eeeb0053fa0cca44e028ff548e2a9f029edfeac87c118b08b7c8a2646970667358221220f62f7e7db9fa615a3a72ff7e9b8fcb6f344df9773f664227d19dcb233c405d8664736f6c63430008100033",
  "linkReferences": {},
  "deployedLinkReferences": {}
}